:020000040000FA
:101000008090002065D90100EFE0020051D9010075
:1010100051D9010051D9010051D90100000000004F
:1010200000000000000000000000000001DB0100E3
:1010300051D90100000000006DDA010051D9010012
:10104000BDDD0100F9300200BDDD0100BDDD0100A4
:10105000BDDD0100BDDD0100BDDD0100BDDD010024
:10106000BDDD0100BDDD010099640200BDDD0100B0
:10107000BDDD0100BDDD0100BDDD0100BDDD010004
:10108000BDDD0100BDDD0100BDDD0100BDDD0100F4
:101090005D310200BDDD0100BDDD0100BDDD0100EF
:1010A000BDDD0100BDDD0100BDDD0100BDDD0100D4
:1010B000BDDD0100BDDD0100BDDD0100BDDD0100C4
:1010C000BDDD0100BDDD0100BDDD0100BDDD0100B4
:1010D000BDDD0100BDDD0100BDDD0100BDDD0100A4
:1010E000BDDD0100BDDD0100BDDD0100BDDD010094
:1010F000BDDD0100BDDD0100BDDD0100BDDD010084
:10110000014B1B685B68184700050020014B1B68FA
:101110009B68184700050020014B1B681B69184796
:1011200000050020014B1B685B6918470005002083
:10113000014B1B689B69184700050020014B1B6889
:10114000DB69184700050020014B1B681B6A184724
:1011500000050020014B1B689B6A18470005002012
:1011600030B4044C9DF8085024680295E468A44605
:1011700030BC60470005002030B50246114890F9A8
:101180001C3093421ADD90F92430934218DAD31AB6
:10119000856A0D4CE85C235693420ED00E3400292C
:1011A0000CBF0346431CA542D8B206D129B1013A6F
:1011B000D2B2012A01D80130C0B230BD0D20FCE707
:1011C0000020FAE7A80D00204CFB020008B5054BF3
:1011D00093F91C30984203DAFFF7CEFF024B1B56FF
:1011E000184608BDA80D00204CFB020010B51C4C91
:1011F00094F82C3073B9012384F82C3000F09EF859
:1012000048B1184BA362D823236284F82430082302
:10121000A361237710BD00F0A7F80028F1D100F0FA
:10122000ADF80028EDD100F06BF838B10E4BA36299
:10123000D823236284F824300423E9E700F06AF815
:101240000028F3D100F070F80028EFD100F080F80A
:101250000028EBD140F2BF11742000F019F800BF54
:10126000A80D002087FB02005AFB0200BFF34F8F3E
:101270000549064BCA6802F4E0621343CB60BFF332
:101280004F8F00BFFDE700BF00ED00E00400FA054E
:101290001FB572B6134B5D688DB9FFF7E7FFB2FB60
:1012A000F6F2DCB20133002AF9D104F110036B44E9
:1012B00003F80C2C0A2234B901A8A847EDE702462E
:1012C00000230A26EDE7631E04AEDCB256FA83F370
:1012D000B0FBF2F602FB1600303003F80C0C30467F
:1012E000E9E700BF481200204FF08052034BD2F8CC
:1012F00030111960D2F834215A60704784120020EE
:10130000034B1868A0F10F0358425841704700BFC3
:1013100084120020034B1868A0F10A035842584178
:10132000704700BF84120020034B1868A0F10E0321
:1013300058425841704700BF84120020034B186880
:10134000A0F1100358425841704700BF841200209A
:10135000044B1868062803D0431C58425841704774
:101360000120704784120020034B1868A0F10D0380
:1013700058425841704700BF84120020034B186840
:10138000A0F1080358425841704700BF8412002062
:1013900081F0004102E000BF83F0004330B54FEA26
:1013A00041044FEA430594EA050F08BF90EA020F93
:1013B0001FBF54EA000C55EA020C7FEA645C7FEA26
:1013C000655C00F0E2804FEA5454D4EB5555B8BF49
:1013D0006D420CDD2C4480EA020281EA030382EABA
:1013E000000083EA010180EA020281EA0303362D4C
:1013F00088BF30BD11F0004F4FEA01314FF4801C1F
:101400004CEA113102D0404261EB410113F0004F30
:101410004FEA03334CEA133302D0524263EB4303E7
:1014200094EA050F00F0A780A4F10104D5F1200E85
:101430000DDB02FA0EFC22FA05F2801841F10001E0
:1014400003FA0EF2801843FA05F359410EE0A5F1B4
:1014500020050EF1200E012A03FA0EFC28BF4CF0E5
:10146000020C43FA05F3C01851EBE37101F000459B
:1014700007D54FF0000EDCF1000C7EEB00006EEBA8
:101480000101B1F5801F1BD3B1F5001F0CD3490832
:101490005FEA30004FEA3C0C04F101044FEA445289
:1014A00012F5800F80F09A80BCF1004F08BF5FEA10
:1014B000500C50F1000041EB045141EA050130BDF0
:1014C0005FEA4C0C404141EB0101013C28BFB1F502
:1014D000801FE9D291F0000F04BF01460020B1FA4D
:1014E00081F308BF2033A3F10B03B3F120020CDA20
:1014F0000C3208DD02F1140CC2F10C0201FA0CF0FE
:1015000021FA02F10CE002F11402D8BFC2F1200C62
:1015100001FA02F120FA0CFCDCBF41EA0C01904018
:10152000E41AA2BF01EB0451294330BD6FEA040461
:101530001F3C1CDA0C340EDC04F11404C4F120024C
:1015400020FA04F001FA02F340EA030021FA04F35E
:1015500045EA030130BDC4F10C04C4F1200220FAB5
:1015600002F001FA04F340EA0300294630BD21FAF3
:1015700004F0294630BD94F0000F83F4801306BFB9
:1015800081F480110134013D4EE77FEA645C18BFAD
:101590007FEA655C29D094EA050F08BF90EA020F44
:1015A00005D054EA000C04BF1946104630BD91EA3C
:1015B000030F1EBF0021002030BD5FEA545C05D13F
:1015C0004000494128BF41F0004130BD14F580047E
:1015D0003CBF01F5801130BD01F0004545F0FE41F2
:1015E00041F470014FF0000030BD7FEA645C1ABF27
:1015F000194610467FEA655C1CBF0B46024650EA5E
:10160000013406BF52EA033591EA030F41F4002189
:1016100030BD00BF90F0000F04BF0021704730B50F
:101620004FF4806404F132044FF000054FF00001E4
:1016300050E700BF90F0000F04BF0021704730B5A5
:101640004FF4806404F1320410F0004548BF40427A
:101650004FF000013EE700BF42004FEAE2014FEACF
:1016600031014FEA02701FBF12F07F4393F07F4FAA
:1016700081F06051704732F07F4208BF704793F0AD
:101680007F4F04BF41F40021704730B54FF46074C0
:1016900001F0004521F000411CE700BF50EA0102C3
:1016A00008BF704730B54FF000050AE050EA01026C
:1016B00008BF704730B511F0004502D5404261EBDC
:1016C00041014FF4806404F132045FEA915C3FF41D
:1016D000D8AE4FF003025FEADC0C18BF03325FEABA
:1016E000DC0C18BF033202EBDC02C2F1200300FA6B
:1016F00003FC20FA02F001FA03FE40EA0E0021FA90
:1017000002F11444BDE600BF70B54FF0FF0C4CF47D
:10171000E06C1CEA11541DBF1CEA135594EA0C0F2F
:1017200095EA0C0F00F0DEF82C4481EA030621EA6A
:101730004C5123EA4C5350EA013518BF52EA0335A5
:1017400041F4801143F4801338D0A0FB02CE4FF057
:101750000005E1FB02E506F00042E0FB03E54FF087
:101760000006E1FB03569CF0000F18BF4EF0010E7F
:10177000A4F1FF04B6F5007F64F5407404D25FEA7B
:101780004E0E6D4146EB060642EAC62141EA55512E
:101790004FEAC52040EA5E504FEACE2EB4F1FD0C70
:1017A00088BFBCF5E06F1ED8BEF1004F08BF5FEAEE
:1017B000500E50F1000041EB045170BD06F00046A0
:1017C00046EA010140EA020081EA0301B4EB5C044D
:1017D000C2BFD4EB0C0541EA045170BD41F4801145
:1017E0004FF0000E013C00F3AB8014F1360FDEBF6A
:1017F000002001F0004170BDC4F10004203C35DA46
:101800000C341BDC04F11404C4F1200500FA05F3C8
:1018100020FA04F001FA05F240EA020001F0004269
:1018200021F0004110EBD37021FA04F642EB0601DF
:101830005EEA430E08BF20EAD37070BDC4F10C0409
:10184000C4F1200500FA04F320FA05F001FA04F2CD
:1018500040EA020001F0004110EBD37041F10001B9
:101860005EEA430E08BF20EAD37070BDC4F12005C4
:1018700000FA05F24EEA020E20FA04F301FA05F22C
:1018800043EA020321FA04F001F0004121FA04F2D4
:1018900020EA020000EBD3705EEA430E08BF20EAA4
:1018A000D37070BD94F0000F0FD101F000464000DE
:1018B00041EB010111F4801F08BF013CF7D041EA60
:1018C000060195F0000F18BF704703F00046520064
:1018D00043EB030313F4801F08BF013DF7D043EA35
:1018E0000603704794EA0C0F0CEA135518BF95EAEB
:1018F0000C0F0CD050EA410618BF52EA4306D1D172
:1019000081EA030101F000414FF0000070BD50EA90
:10191000410606BF1046194652EA430619D094EA1A
:101920000C0F02D150EA013613D195EA0C0F05D104
:1019300052EA03361CBF104619460AD181EA030158
:1019400001F0004141F0FE4141F470014FF0000010
:1019500070BD41F0FE4141F4780170BD70B54FF0AB
:10196000FF0C4CF4E06C1CEA11541DBF1CEA13552B
:1019700094EA0C0F95EA0C0F00F0A7F8A4EB05040D
:1019800081EA030E52EA03354FEA013100F0888004
:101990004FEA03334FF0805545EA131343EA1263CD
:1019A0004FEA022245EA111545EA10654FEA002682
:1019B0000EF000419D4208BF964244F1FD0404F53B
:1019C000407402D25B084FEA3202B61A65EB030597
:1019D0005B084FEA32024FF480104FF4002CB6EB54
:1019E000020E75EB030E22BFB61A754640EA0C00D4
:1019F0005B084FEA3202B6EB020E75EB030E22BF14
:101A0000B61A754640EA5C005B084FEA3202B6EB54
:101A1000020E75EB030E22BFB61A754640EA9C0013
:101A20005B084FEA3202B6EB020E75EB030E22BFE3
:101A3000B61A754640EADC0055EA060E18D04FEAA1
:101A4000051545EA16754FEA06164FEAC30343EA41
:101A500052734FEAC2025FEA1C1CC0D111F4801F0E
:101A60000BD141EA00014FF000004FF0004CB6E707
:101A700011F4801F04BF01430020B4F1FD0C88BFA6
:101A8000BCF5E06F3FF6AFAEB5EB030C04BFB6EBB1
:101A9000020C5FEA500C50F1000041EB045170BDA4
:101AA0000EF0004E4EEA113114EB5C04C2BFD4EBD1
:101AB0000C0541EA045170BD41F480114FF0000E55
:101AC000013C90E645EA060E8DE60CEA135594EAD1
:101AD0000C0F08BF95EA0C0F3FF43BAF94EA0C0FD4
:101AE0000AD150EA01347FF434AF95EA0C0F7FF449
:101AF00025AF104619462CE795EA0C0F06D152EA9D
:101B000003353FF4FDAE1046194622E750EA410680
:101B100018BF52EA43067FF4C5AE50EA41047FF491
:101B20000DAF52EA43057FF4EBAE12E74FF0FF3CF6
:101B300006E000BF4FF0010C02E000BF4FF0010CC7
:101B40004DF804CD4FEA410C7FEA6C5C4FEA430C40
:101B500018BF7FEA6C5C1BD001B050EA410C0CBF8F
:101B600052EA430C91EA030F02BF90EA020F0020F1
:101B7000704710F1000F91EA030F58BF994208BF58
:101B800090422CBFD8176FEAE37040F00100704715
:101B90004FEA410C7FEA6C5C02D150EA013C07D16C
:101BA0004FEA430C7FEA6C5CD6D152EA033CD3D0B7
:101BB0005DF8040B704700BF8446104662468C46B1
:101BC0001946634600E000BF01B5FFF7B7FF0028E4
:101BD00048BF10F1000F01BD4DF808EDFFF7F4FF0D
:101BE0000CBF012000205DF808FB00BF4DF808ED98
:101BF000FFF7EAFF34BF012000205DF808FB00BFBB
:101C00004DF808EDFFF7E0FF94BF012000205DF8DC
:101C100008FB00BF4DF808EDFFF7CEFF94BF012091
:101C200000205DF808FB00BF4DF808EDFFF7C4FF8A
:101C300034BF012000205DF808FB00BF4FEA410CD3
:101C40007FEA6C5C02D150EA013C0AD14FEA430CB6
:101C50007FEA6C5C02D152EA033C02D14FF00000F3
:101C600070474FF0010070474FEA410212F5001231
:101C700015D211D56FF47873B3EB625212D94FEAD3
:101C8000C12343F0004343EA505311F0004F23FABD
:101C900002F018BF404270474FF00000704750EA12
:101CA000013005D111F0004008BF6FF000407047CF
:101CB0004FF00000704700BF4FEA4102B2F1E0432D
:101CC00024BFB3F5001CDCF1FE5C0DD901F0004C23
:101CD0004FEAC0024CEA5070B2F1004F40EB830073
:101CE00008BF20F00100704711F0804F21D113F19F
:101CF0003872BCBF01F00040704741F480114FEAD8
:101D00005252C2F11802C2F1200C10FA0CF320FA60
:101D100002F018BF40F001004FEAC1234FEAD3237D
:101D200003FA0CFC40EA0C0023FA02F34FEA4303E7
:101D3000CCE77FEA625307D150EA01331EBF4FF070
:101D4000FE4040F44000704701F0004040F0FE408B
:101D500040F40000704700BF7BB972B90029BEBFD4
:101D600000204FF0004106E008BF00281CBF6FF0C4
:101D700000414FF0FF3000F057B8ADF1080C6DE9AD
:101D800004CE002909DB002B1ADB00F0B0F8DDF8E7
:101D900004E0DDE9022304B07047404261EB4101F9
:101DA000002B1BDB00F0A3F8DDF804E0DDE90223E3
:101DB00004B0404261EB4101524263EB4303704780
:101DC000524263EB430300F092F8DDF804E0DDE9F2
:101DD000022304B0404261EB41017047524263EB81
:101DE000430300F084F8DDF804E0DDE9022304B0E9
:101DF000524263EB4303704753B94AB9002908BF05
:101E000000281CBF4FF0FF314FF0FF3000F00CB83E
:101E1000ADF1080C6DE904CE00F069F8DDF804E0DE
:101E2000DDE9022304B07047704700BF08B5FFF733
:101E30005BFABDE80840FFF7D9B970B5841A04F31E
:101E400007040E4660B259B21546FFF7BFF90023EA
:101E500030702844737040B270BD00230360704737
:101E60007047002070474FF0FF3070474FF0FF3051
:101E7000704770474FF0FF307047002070470020D8
:101E800070470023037070479DF800300022FFF771
:101E9000D4BF002070474FF0FF3070474FF0FF3045
:101EA00070474FF0FF307047704700280CBF6FF04D
:101EB00015000020704700207047072303700020A2
:101EC0007047002070470020704710F8012B11F870
:101ED000013B012A28BF9A42F7D0D01A7047034627
:101EE00013F8012B002AFBD1181A013870472DE98D
:101EF000F04786468C460846089E154674461946A5
:101F0000002B40F0C2808542B2FA82F245D94AB134
:101F1000C2F1200300FA02FC2EFA03F3954043EAD3
:101F20000C0C94404FEA154EA8B2BCFBFEF8230CF3
:101F30000EFB18CC08FB00F943EA0C43994528D95D
:101F4000EB1808F1FF3704D2994502D9A8F102072E
:101F50002B44A3EB0903A4B2B3FBFEFC0EFB1C3322
:101F60000CFB00F044EA0344A04214D92C190CF1F4
:101F7000FF3304D2A04202D9ACF102032C44241A4C
:101F800043EA07401EB1D440002334607360BDE8CB
:101F9000F0874746DDE76346F1E792BB431B01212B
:101FA0004FEA154EAFB2B3FBFEFC200C0EFB1C3308
:101FB0000CFB07F840EA0343984562D9EB180CF193
:101FC000FF3004D2984502D9ACF102002B44A3EBB8
:101FD0000803A4B2B3FBFEFC0EFB1C330CFB07F79B
:101FE00044EA0344A7424ED92C190CF1FF3304D222
:101FF000A74202D9ACF102032C44E41B43EA00409F
:10200000C0E7C2F1200320FA03F1954090402EFA78
:1020100003F303434FEA154EAFB2B1FBFEFC0EFBD8
:102020001C10190C0CFB07F841EA0041884504FA22
:1020300002F422D969180CF1FF3004D2884502D984
:10204000ACF102002944A1EB08019BB2B1FBFEFCFC
:102050000EFB1C110CFB07F743EA01439F420ED90C
:10206000EB180CF1FF3104D29F4202D9ACF102010E
:102070002B44DB1B41EA004192E76046E3E76146FF
:10208000F7E76046A3E76346B7E7834206D916B988
:10209000002108467BE7C6E900E0F9E7B3FA83F7D9
:1020A0008FB9834201D3724508D8BEEB020460EBBE
:1020B000030301209C461EB9002168E73846FAE771
:1020C000C6E9004CF8E7C7F1200CBB4022FA0CF43B
:1020D0001C432EFA0CF120FA0CF3B84001434FEAEE
:1020E00014490EFA07F5B3FBF9F81FFA84FE09FB51
:1020F00018300B0C08FB0EFA43EA00439A4502FA2B
:1021000007F240D9E31808F1FF3004D29A4502D90A
:10211000A8F102002344A3EB0A0389B2B3FBF9F848
:1021200009FB183308FB0EFE41EA03418E452CD90A
:10213000611808F1FF3304D28E4502D9A8F10203D9
:10214000214443EA0040A0FB0298A1EB0E01414567
:10215000CE46434602D306D14D4504D2B9EB020E1A
:1021600068EB04030138002EA6D0B5EB0E0261EB3C
:10217000030101FA0CFC22FA07F34CEA0303F940CD
:10218000C6E9003198E74046C5E74346D9E7000075
:10219000F0B514461A4AA0FB020302FB0131C00B42
:1021A00085B040EA414014A3D3E90023C90BFFF7EF
:1021B00023FE0546194610460023124AFFF71CFE6F
:1021C00006461946104600230D4AFFF715FE07463E
:1021D0001946104600234FF47A72FFF70DFE009760
:1021E000CDE90102334608482A4621462BF019F86A
:1021F00005B0F0BDAFF3008000A493D6000000004E
:1022000040420F00008793035C13030000000000AE
:102210002DE9F04FC7B014F0C1FA38B14FF0804348
:102220005722C3F81C2500202AF04DF91AF018FE99
:1022300018F050FC0446002840F0D680002140F6FB
:10224000CD4026F0EBFF6A486A4D2AF0EAFF1323DF
:102250001C20CDE90030052267480294032340F298
:10226000EA712AF0DEFF05F0C3FF644B644C186886
:102270001B798DF84C30634B129018681B798DF8E0
:102280005430614B14909A8818689B798DF87E3091
:102290005E4BADF87C209A88ADF884205C4A1E9095
:1022A000186851689B79209010688DF8863026ABAD
:1022B00003C3584B584A186851681B791690106828
:1022C0008DF85C3028AB03C312891A80534B186811
:1022D0009A889B798DF88E30514B2290CDE9094335
:1022E000504BADF88C2018681B798DF864304E4B3C
:1022F000189018689B88ADF874304C4B0B934C4B7E
:102300004C4A1C90186851681B791A9010688DF817
:102310006C302BAB03C31189927A19809A70464BAB
:102320000C93A3F54023454AA3F61973CDE90D3468
:10233000434B10685168CDE90F352EAB03C390684D
:102340001860404B34AA03F108061868596814460F
:1023500003C40833B3422246F7D13B4A18682060D1
:102360001B7910685168237131AB03C39068186002
:10237000364B38AA03F1080618685968144603C496
:102380000833B3422246F7D118681B792371304BCA
:1023900020609A8818689B7911952490ADF8942054
:1023A0008DF896301AF044FD14220746002141A80A
:1023B0002CF078FE052241A9384606F059FB064666
:1023C0000028EFD0419805F003FF012E02D042987B
:1023D00005F0FEFEDDF8048112A94046FFF775FD09
:1023E000C0BB05F005FFDDE7012026F053FF1FE726
:1023F000F0130300616C6C001C140300BB19030094
:102400006D616700AB590300C0190300C7190300D1
:102410002B580300C34F0300CE190300D819030043
:1024200073657400DF190300E41903006466750026
:10243000801A0300EA1903007A726F00F51903008D
:1024400062617400011A03000E1A03001A1A0300D5
:10245000271A030014A94046FFF737FD0546002858
:1024600040F01182CA48CB4C2AF0DBFE13231C211A
:102470000522CDE90031C8480295032340F2EA71F4
:102480002AF0CFFEC5482AF0CCFEC5482AF0C9FE86
:10249000C4482AF0C6FEC4482AF0C3FE2368B3F835
:1024A000763303F07F037F2B00F0B48110F03AFA0B
:1024B0000146BE482AF0B5FE236893F87A33FF2B15
:1024C00008D013F0800FBA4BBA49BB4818BF194661
:1024D0002AF0A7FE2368B94893F87A23B3F8761355
:1024E0002AF09FFE2368B3F8783303F07F037F2B35
:1024F00000F0928110F026FA0146B1482AF091FED0
:10250000236893F87B23FF2A10D012F0800FB3F8D2
:102510007833A74AA749AB4818BF114613F0800F7C
:10252000A94BAA4A18BF1A462AF07BFE2368A34883
:1025300093F87B23B3F878132AF073FEA44B1B683F
:10254000DB889A0640F16A81A248DFF8C4A22AF02B
:1025500068FE0027266806EB87060137D6F8440197
:10256000FFF77AF88046D6F868018946FFF774F8D5
:10257000CDE90401D6F85C01FFF76EF8CDE9020160
:10258000D6F85001FFF768F84246CDE900014B4606
:1025900050462AF046FE032FDCD1D4F80080DFF845
:1025A0007092D8F8FC00FFF757F80646D8F80401F7
:1025B0000F46FFF751F8CDE90201D8F80001FFF707
:1025C0004BF83246CDE900013B4683482AF029FE0C
:1025D00082482AF026FE236803EB85080135D8F8E7
:1025E0001401FFF739F80646D8F838010F46FFF70F
:1025F00033F8CDE90401D8F82C01FFF72DF8CDE927
:102600000201D8F82001FFF727F83246CDE9000192
:102610003B4648462AF005FE032DDCD110F0A2F916
:1026200001466F482AF0FDFD5F482AF0FAFD236855
:102630006C4893F8655093F866106B4B002D08BFFB
:1026400018462AF0EEFD4FF080526848D2F8A830C4
:10265000D2F8A4209BB22AF0E4FD22686449D2F8A3
:1026600069306448B2F86720002D18BF084642EA76
:1026700003421B0C2AF0D5FD4B482AF0D2FD12F084
:102680000FFA834612F01AFA12F068F9824612F035
:102690001BFA07460E4612F009FB0546894612F062
:1026A00019FABBF1000F0446884640F3DD802CF098
:1026B00080FC514AC01B61EB0603A0FB020102FB38
:1026C0000311C00B40EA41402FA3D3E90023C90BFB
:1026D000FFF792FB1946064600231046474AFFF7CC
:1026E0008BFB074650461EB9FBB2002B00F0B080B2
:1026F000FEF7A0FF424B0022FFF730F9CDE900675B
:1027000002460B463F482AF08CFD55EA090300F0CB
:10271000B280394BA5FB030103FB0911C00B40EA52
:10272000414019A3D3E90023C90BFFF765FB054618
:10273000194610460023314AFFF75EFB2946024640
:1027400031482AF06EFD54EA080300F098802A4BC5
:10275000A4FB030103FB0811C00B40EA41400AA39C
:10276000D3E90023C90BFFF747FB0446194610467F
:102770000023224AFFF740FB0246244821462AF064
:1027800050FD0FE6AFF3008000A493D600000000D8
:102790007D140300280700201C140300A11403006B
:1027A000B7140300C614030026610300E9140300F4
:1027B000881303008C130300F214030001150300B7
:1027C0001615030029150300901303002761030069
:1027D000240700203A1503008C150300AC150300F4
:1027E000C21503009B130300AB130300CF150300B6
:1027F000BD130300D813030040420F00008793036A
:1028000000005940E8150300431603008316030037
:1028100052150300C1494CE6C0496EE6D4F8008069
:10282000D8F8F000FEF718FF0646D8F8F8000F4673
:10283000FEF712FFCDE90201D8F8F400FEF70CFF15
:102840003246CDE900013B46B5482AF0EAFCA4E651
:10285000FEF7F0FEB34B0022FFF780F802460B466E
:10286000B1482AF0DEFC50E73E430CBFAF48B04809
:102870002AF0D7FC49E7AF482AF0D3FC63E7AE481B
:102880002AF0CFFC8EE51EA94046FFF71EFBB0B92B
:102890002CF08FFBA94A0D460446FFF779FCA84BA4
:1028A0001B68D3E90401D3E90223801A61EB030119
:1028B0000019A44A41EB0501FFF76AFC72E520A963
:1028C0004046FFF702FB10B929F0FDFD6AE526A995
:1028D0004046FFF7FAFA002840F00D8112F0DAF8CE
:1028E000014699482AF09DFC12F0DAF8804612F071
:1028F000E5F8814612F032F8064612F0E5F8B8F134
:10290000000F04460D4640F3D6803046FEF792FE97
:10291000844B0022FFF722F8064648460F46CDF8C2
:102920000880FEF787FE7F4B0022FFF717F832463C
:10293000CDE900013B4685482AF073FC54EA0503C3
:1029400000F0BD802CF035FB001B814A61EB0501D6
:10295000FFF71EFC12F0BEF88146884612F00AF915
:1029600007460E4612F054F905460C4612F09EF941
:1029700050EA010300F0A780764AFFF709FC59EA04
:10298000080300F0A480744A48464146FFF700FC63
:1029900057EA060300F09F80704A38463146FFF739
:1029A000F7FB55EA040300F09A806D4A2846214659
:1029B000FFF7EEFB29F021FD054629F02BFD04462B
:1029C000284611F0CBFF8246204611F0C7FF804613
:1029D00029F02DFD45EA04031B0407460E4600F1CD
:1029E000828050EA01037ED04046FEF723FE4D4B25
:1029F0000022FEF7B3FF804628468946FEF71AFEFE
:102A0000484B0022FEF7AAFFCDE904012046FEF75D
:102A100011FE444B0022FEF7A1FFCDE90201504612
:102A2000FEF708FE3F4B0022FEF798FF4246CDE935
:102A300000014B464B482AF0F4FB4B4A38463146DE
:102A4000FFF7A6FB12F098F9064612F0BBF9044610
:102A500012F0D0F944EA00030746180447D4204690
:102A6000FEF7E8FD2F4B0022FEF778FF06EB860607
:102A70000446F0B20D46FEF7CDFDCDE90201384621
:102A8000FEF7D8FD274B0022FEF768FF2246CDE96E
:102A900000012B4635482AF0C4FB12F049F9FEF735
:102AA000B9FD334B0022FEF759FF02460B46314871
:102AB0002AF0B7FB76E430482AF0B3FB3EE72F4814
:102AC0002AF0AFFB46E71B482AF0ABFB57E71A4852
:102AD0002AF0A7FB5CE72A482AF0A3FB61E7294814
:102AE0002AF09FFB66E728482AF09BFBAAE72748C5
:102AF0002AF097FBD1E716A94046FFF7E6F918B987
:102B0000012011F011FC4DE428A94046FFF7DDF942
:102B100000283DD107F0CAFD44E400BF7A1303004A
:102B200067150300000059400E1603001F1603002E
:102B30001117030061160300A5160300CB1603004E
:102B400028070020D2160300DE160300EA16030051
:102B50002017030042170300551703006B170300EB
:102B60009B170300CB1703000B1803003A18030050
:102B7000000034407F180300101703002D170300D6
:102B80007B170300AB1703001E1803006B1803002C
:102B900022A94046FFF799F910B907F091FD01E429
:102BA00009A94046FFF791F928B90121002006F054
:102BB00083FBFFF7F7BB0AA94046FFF786F900BB86
:102BC000022E01D0B5485BE64298102128F0ECFEB9
:102BD000B34ACDE9000105460C463CA811212AF074
:102BE0002DFB55EA04030AD042993CA8FFF76DF982
:102BF00028B92846214605F031FAFFF7D3BBA9488A
:102C00003EE618A94046FFF760F918B905F018FA32
:102C1000FFF7C8BB1CA94046FFF757F918B905F0E4
:102C200079FAFFF7BFBB0BA94046FFF74EF928B969
:102C30004FF080435722C3F81C2545E61AA94046A9
:102C4000FFF743F9002838D12CF0B3F941F24822BC
:102C50000023FFF781F810461946EA220023FFF708
:102C60007BF804461946104600232722FFF774F824
:102C700016461D46C7B22946304603220023FFF7F9
:102C80006BF8894BD2B2304613F8028029460D22E8
:102C90000023FFF761F8854B854AC0B2E4B253F8D0
:102CA00020300093834B52F8242053F82730824879
:102CB00041462AF0B6FAFFF775BB2BA94046FFF74D
:102CC00004F998BB022E7FF47DAF429C0CA92046EC
:102CD000FFF7FBF8014620B9012206F0ABF9FFF738
:102CE00061BB0DA92046FFF7F0F820B9012106F0DD
:102CF0003FFAFFF757BB0EA92046FFF7E6F800287A
:102D00003FF453AF0FA92046FFF7DFF818B912F0D0
:102D100087F8FFF747BB10A92046FFF7D6F818B988
:102D200013F0C2FCFFF73EBB6448A9E52EA9384664
:102D3000FFF7CBF80446E0B9DFF8A481604F064600
:102D4000214640462AF06DFA5E4B33F81490002578
:102D50007119A94589B205DC0134042C3FF422AB7A
:102D60000E46EDE757F8212057482AF05AFA013568
:102D7000EEE734A94046FFF7A8F80446002840F0E3
:102D8000B380032E7FF41EAF429824A9FFF79DF86D
:102D9000054630BB802027F05DF9AC2300933CAAA8
:102DA000439BADF8F0508021044616F0D3FC08B1E7
:102DB000464865E5464D28688022214600F55F704B
:102DC0002CF062F903F068FA2A68802302F55F723A
:102DD00000211E2013F066FB20462CF014F93D481C
:102DE0004EE50A214398DFF8DCA028F0C0FDDDF8AD
:102DF00008B10546584605F05DFA314A804623463B
:102E00003AF8021B0691002721E0B8F1000F1BDA07
:102E1000079352F826105846FFF757F8284A079BA1
:102E2000A0B9022C28D0032C30D0012C1CD0012DAD
:102E300031D805F00101484603F07CFA204B2648C2
:102E400053F826102A469AE4B045EAD0013706998D
:102E500013FA87F68F421FFA87F9B6B2D5DB013431
:102E6000042C3FD03346CBE7012D14D805F00101E7
:102E7000484603F081FAE1E705F50043B3F5803FEA
:102E800009D229B2484603F097FAD7E729464846BF
:102E900003F0ACFAD2E71148F2E400BF9318030044
:102EA000B0180300B81803002E1A030078FC0200C3
:102EB000C4FC0200ACFC0200C9180300F6180300B1
:102EC000B006002048090300141903001C19030070
:102ED0002807002033190300431903005A1903007F
:102EE000081903007948CBE431A93846FEF7EDFF15
:102EF000002840F0A080022E7FF464AE429F11A90A
:102F00003846FEF7E2FF80BB0024DFF8E081DFF8FF
:102F1000D09126461CE0022CD9F800201CD0032CAE
:102F20001FD0012C14BF5288D2882A4102F001021E
:102F30006749684851F823102AF073F9013573196D
:102F4000BD429BB2E7DB0134042C3FF42BAA1E46A2
:102F500038F814700025F2E702EB4502B2F90A20B6
:102F6000E6E702EB8502D26AE2E724A93846FEF7DB
:102F7000ACFF0546C0B9AD2027F06CF8564BADF854
:102F8000F0501B6880220446009203F55F733CAA50
:102F9000AD2116F05FFB514821462AF042F9204648
:102FA0002CF031F8FFF7FEB9384605F083F900251B
:102FB000DFF838A1464B8046A9463AF802BB002408
:102FC0002EE0B8F1000F1CDA53F826103846FEF751
:102FD0007CFF3F4BB0FA80F0400900B3404B022D1C
:102FE0001B6813D0032D16D0012D14BF5A88DA8820
:102FF000224102F00102364B364853F82610FFF703
:10300000BEBBA6EB080148424841E6E703EB440398
:10301000B3F90A20EFE703EB8403DA6AEBE7013444
:1030200009EB04065C45B6B2CBDB0135042D3FF459
:1030300059AFB146C1E738A93846FEF746FF002828
:1030400041D1022E7FF4BEAD429F11A93846FEF752
:103050003CFF18B903F01AFAFFF7A4B9384605F097
:1030600029F90024DFF88480194B0646A14638F878
:1030700002BB00251AE0002E13DA53F82010384660
:10308000FEF723FF124BB0FA80F0400968B15146B9
:10309000A0B203F0C5F9429912482AF0C2F8FFF72E
:1030A00081B9321A50425041F0E7013519FA85F0E2
:1030B0005D451FFA85FA80B2DDDB0134042C3FF454
:1030C00011AF8146D3E70848FFF7DABB691903005F
:1030D000B00600208419030028070020EE14030026
:1030E0002407002098190300AA19030048090300C7
:1030F0002DE9F04F89B01F46DB000593139B039029
:10310000DB000493139B079223EAE373DB000D4675
:1031100006934FF00008079B98452BDB09B0BDE8EC
:10312000F08FDBE90023F4E80201FEF7EDFA0B462D
:103130000246DDE90001FEF731F9049BCDE900010B
:103140009B4409F101099DED007BB9458AED007BA7
:10315000E7DB0AF1080A0136129B03EBC60B139B4F
:103160009E420BDA9FED0A7B2C468DED007B4FF0E3
:103170000009E8E7DDF80CA00026EDE7069B039ABE
:103180001A44059B03921D4408F10108C3E700BFE0
:1031900000000000000000002DE9F74F0F461C461C
:1031A0001946064638469046651E0EF029FFA31EB6
:1031B0009FED257B9FED266BE24304FB03316FF00F
:1031C000070004FB0545183E4FEAC409D20007EB8F
:1031D000C101A0EBC400ED000196A7F1100B002B7C
:1031E00002DC03B0BDE8F08F019E03F1010C2E4418
:1031F0000BEB050EA44512DB58F823609E420AD063
:1032000004FB063607EBC606B6468A469C46A4452E
:1032100010DB86ED006B013B11440544DFE796EDC2
:10322000005B0CF1010C8EED005B86ED007BCE4463
:103230004E44DFE79EED005B0CF1010CAAEC025B53
:10324000AEEC027BE3E700BF0000000000000000DE
:10325000000000000000F03F2DE9F04F2DED048B41
:103260008FB0DDE91C541F4604FB05F300EBC303DC
:1032700003EBC40999ED007B4FEAC40808F1080686
:1032800003EBC50B03930BEB0603CDE90C0109928D
:1032900051EC170B0293D3E900238DED0A0B8DED52
:1032A000047BFEF779F87E4B0022FEF72DFA0BEB3C
:1032B00008030893039BCDE900019919089BD1E904
:1032C0000001D3E90023FEF71FFADDE90023CDE971
:1032D000060110461946FEF717FADDE90623FEF748
:1032E0005DF8DDE90A2382468B46DDE90401FEF73D
:1032F00055F8C9E90001029BDDE90A01D3E9002381
:10330000FEF74CF8029BC3E90001099B03EB080997
:1033100033440993BB19CDE904010A930022002329
:1033200050465946B844FEF77FFC002800F09380D1
:103330004BEC10AB27F0E2F800220023DDE900019E
:1033400057EC106BFEF752FC32463B4600287DD00E
:10335000DDE90001FEF720F882468B4602460B4667
:10336000DDE90401FEF71AF85246C9E900015B469F
:10337000DDE90601FEF7F2FA0B4602990246D1E9B1
:103380000001FEF709F8099B9FED437BC3E90001AB
:103390000A9B88ED007B83ED007B089BD3E90089C5
:1033A00042464B4640464946FEF7AEF9524606466F
:1033B0000F465B4650465946FEF7A6F902460B46B5
:1033C00030463946FDF7EAFF41EC100B27F096F83E
:1033D00057EC106B404632463B464946FEF7BEFA74
:1033E0003B4641EC190B324650465946FEF7B6FAB9
:1033F000B0EE491AF0EE691A41EC180B2246039818
:10340000B0EE480AF0EE680A294628F0C1FDB0EE99
:10341000491AF0EE691AB0EE480AF0EE680A0C9804
:103420002246294628F0F9FDB0EE491AF0EE691A55
:10343000B0EE480AF0EE680A0D98224629460FB011
:10344000BDEC048BBDE8F04F28F035BEDDE900018E
:10345000FDF7A4FF80E7DDE90023DDE90401FDF7C6
:103460009DFF099B5246C9E90001C3E900012BF009
:10347000004343EC102B27F041F854EC103B0A9A20
:1034800088ED000BBB5104F1004353600FB0BDEC5D
:10349000048BBDE8F08F00BF0000000000000000BA
:1034A0000000E03F000000002DE9F04FA9B059EC0A
:1034B000118B0693531E19920793339A069B18900B
:1034C00002FB03F4069B2791DB000A93069B00EBAB
:1034D000C40404EBC30BDBE900679D18304653ECD2
:1034E000102B39468DED000BFDF756FF32463B465B
:1034F000FEF70AF904EBC50A42464B46FDF74EFFBC
:10350000DAE90023FEF72AFADBE90223FDF746FF9A
:10351000DAE902238046894630463946FDF73EFF08
:10352000DDE90023FDF738FF339B1D4404EBC5059F
:1035300095ED027B06460F46404629F00041324693
:1035400027F000438DED007BFDF728FFDDE9002526
:1035500025F00043FDF722FFCDE9080102460B46A6
:1035600040464946FEF7FAF9DDE9082380468946D8
:1035700030463946FEF7F2F9DDE90823CDE90201CC
:10358000DDE90001FEF7EAF9339BDB000D93083318
:103590001293CDE90001CDF820A0069B339ADDF807
:1035A00018A003EB420304EBC3030C930A9B083BF4
:1035B00004EB030B079B9A4502DD29B0BDE8F08FB1
:1035C000069B9A4548DD079B9A4500F0E4800C9BDA
:1035D00013ED027B089BDBE9006753E9024527F006
:1035E0000043CDE91B3425F000431A961D93DDE915
:1035F0001C23DDE91A018DED007BFDF7CFFE009B5A
:103600001E93019B23F000431F93DDE91E23FDF76A
:10361000C5FE02460B46CDE9042300220023FEF737
:10362000DBFA002840F0AC80DDE90423304639465F
:10363000FEF794F9DDE904238046894620462946B1
:10364000FEF78CF9DDE90423CDE90201DDE9000193
:10365000FEF784F9CDE9000142464B464046494613
:10366000FEF752F8DDE9022304460D4610461946DE
:10367000FEF74AF802460B4620462946FDF78EFE25
:10368000DDE9002304460D4610461946FEF73CF8D6
:1036900002460B4620462946FDF780FE41EC100B02
:1036A00026F02CFF002200234046494655EC104BE3
:1036B000FEF79CFA28B105F1004320942193DDE93F
:1036C0002045069B9A4569DD05F10043239322942A
:1036D000DDE90423DDE92201FEF716F8CBE900015C
:1036E00022462B4640464946FDF758FE22462B46C9
:1036F00080468946FEF732F922462B46CDE9040181
:10370000DDE90201FEF72AF922462B46CDE90E013A
:10371000DDE90001FEF722F94246CDE910014B46F2
:10372000DDE90201FEF71AF94246CDE902014B46F6
:10373000DDE90001FEF712F9CDE900010C9D089CBE
:103740000BF108065746339B9F4238DB199A189CA9
:103750000AF103039342A8BF134626934FEACA0314
:103760000A93083313930A9B103314930025269B66
:10377000AB4273DA329C0025339B9D42C0F2C98074
:10378000129A089B134408930C9B13440AF1010AF4
:103790000C9393440EE79FED8C7B1BE7069B279AC7
:1037A00093429DD0DBF800302493DBF8043003F122
:1037B000004325939DED247B8BED007B90E7D4E9BE
:1037C0000023DDE902010A94FDF79EFFD6E90023FC
:1037D000FDF7E4FD079B9A45804689461FD095ED8D
:1037E000007BDDE9002351EC170B8DED0A7BFDF723
:1037F0008BFF02460B4640464946FDF7CFFD024689
:103800000B4680468946DDE91001FDF77DFF024643
:103810000B46DDE90A01FDF7BFFDC5E90001DDE961
:103820000E2340464946FDF76FFF02460B46D4E99A
:103830000001FDF7B1FDDDE90423E4E802014046A3
:103840004946FDF761FF02460B46D6E90001FDF748
:10385000A3FD0137E6E80201083574E70A9BE61884
:10386000139BDDE904011F19D6E90023FDF74CFF86
:10387000D7E9002380468946DDE90E01FDF744FFC4
:103880000B46024649464046FDF788FD079B9A4590
:103890008046894623D0149B234493ED007B1593E7
:1038A00051EC170BDDE910238DED167BFDF72CFF96
:1038B00002460B4640464946FDF770FD02460B4660
:1038C00080468946DDE90001FDF71EFF0B460246F2
:1038D000DDE91601FDF760FD159BC3E90001DDE997
:1038E000022340464946FDF70FFF02460B46D7E943
:1038F0000001FDF751FDC7E900014B46D6E9000183
:103900004246FDF749FD0D9BC6E9000101351C4407
:103910002DE70A9BE618139BDDE904011F19D6E980
:103920000023FDF7F1FED7E9002380468946DDE953
:103930000E01FDF7E9FE0B46024649464046FDF7FB
:103940002DFD079B9A458046894623D0149B23442E
:1039500093ED007B159351EC170BDDE910238DEDF2
:10396000167BFDF7D1FE02460B4640464946FDF761
:1039700015FD02460B4680468946DDE90001FDF74C
:10398000C3FE0B460246DDE91601FDF705FD159B5A
:10399000C3E90001DDE9022340464946FDF7B4FED4
:1039A00002460B46D7E90001FDF7F6FCC7E9000126
:1039B0004B46D6E900014246FDF7EEFC0D9BC6E9F9
:1039C00000011C440135D7E60000000000000000A3
:1039D0002DE9F04FA7B01D46309B249103FB05F461
:1039E00000EBC4049A491790EB001493002004EBF9
:1039F000C503C3E9000130990793CE00C6EBC503A8
:103A00001C446FF007039B1B9FED8F7B1593079B57
:103A1000CDE91043249B8DED220B8DED0A7B8DEDBE
:103A2000027B02EBC50203EBC50305F1FF3B1692D7
:103A3000AA462593149BBBF1000FA4EB030902DAFD
:103A400027B0BDE8F08F259B109993ED007B51E9DD
:103A5000020153EC172B8DED127BFDF79DFC09EB5A
:103A6000CA031F46309B94ED007B03FB0AF8149BAE
:103A7000CDE9040103EBC8088DED007B179BD1460F
:103A80009844A94549DB169B33ED027B002216932F
:103A900051EC170B00238DED0C7BFEF7A7F830BB24
:103AA000DDE90C0100220023FEF796F8002849D03A
:103AB000009B0E93019B03F100430F93DDE904018A
:103AC00000220023FEF788F8002838D1DDE904231E
:103AD000DDE90E01FDF742FFC4E900019DED0A7B1F
:103AE0008DED007B9DED027B8DED047BDA46079B1F
:103AF000159A9B1B9DED007B0793109B13448DED46
:103B00000A7B10939DED047B119B13448DED027B8A
:103B10000BF1FF3BA41B11938CE7D8E90023F7E8D6
:103B20000201FDF7F1FD02460B46DDE90001FDF75C
:103B300035FC09F10109CDE90001B044A1E7DDE957
:103B40002223C5E7109B93ED007B119B8DED087B35
:103B500013ED027B249B03EBCB01D1E90001DDE9EE
:103B600012238DED207BFDF717FC02460B46FDF777
:103B7000CBFDDDE90A23CDE91201DDE90801FDF7FE
:103B8000C3FDDDE9022380468946DDE90001FDF73A
:103B9000BBFD02460B4640464946FDF7FDFBDDE90D
:103BA0000C238046894610461946FDF7ADFDDDE938
:103BB0001223FDF7F3FB02460B4640464946FDF74C
:103BC000CDFE089B1893099B23F000431993029B99
:103BD0001A93039B23F00043804689461B93DDE93B
:103BE0001A23C4E90089DDE91801FEF71DF84246F1
:103BF0004B46A8B1DDE90401FDF786FDDDE90023B0
:103C0000FDF7CCFB01F100431D931C90DDE9082377
:103C1000DDE91C01FDF7A2FE079BC3E900015DE79A
:103C2000DDE92001FDF770FDDDE90A23FDF7B6FBB4
:103C300001F100431F931E90DDE90223DDE91E011F
:103C4000E8E700BFAFF300800000000000000000C4
:103C50000000F03F000000002DE9F04F8DB0CDE9ED
:103C60000901169A013A0192169AD6003344A6F138
:103C700008040893019B002B02DA0DB0BDE8F08F19
:103C8000089B73E9028900220893404600234946B5
:103C9000FDF7ACFF054600284DD004F108030A9D4E
:103CA0000B93A4F108094FF00008169B984504DB1C
:103CB000019B013B0193083CDCE79FED377B0B9BAD
:103CC000099F8DED047B8DED027BAB4605EB030A6E
:103CD000BBEC027B09EB070351EC170BD3E9002384
:103CE0008DED067BFDF710FD02460B46DDE9020176
:103CF000FDF754FB3B19D3E90023CDE90201DDE9CF
:103D00000601FDF701FD02460B46DDE90401FDF762
:103D100045FBDA45CDE904013744D9D19DED027B5D
:103D200005EB090383ED007B2B19C3E90001354442
:103D300008F10108B9E70022002340464946FDF793
:103D40004BFF0028B4D00A9F04F1080A1FE09FED42
:103D5000127B099B8DED027B03EB0409B84607EB50
:103D60000A0BD9E90023F8E80201FDF7CDFC024671
:103D70000B46DDE90201FDF711FBD845CDE9020153
:103D8000B144EED13B19C3E9000101353744169B1C
:103D90009D42DCDB8CE700BF00000000000000005B
:103DA0002DE9F04F2DED048BBDB093464A9A0E934A
:103DB0005D1E02FB03F4EB001E930E9B1D909E1AEA
:103DC000EB0000EBC40408330F9304EBC50704EBCE
:103DD000030AAB1A97ED007B04EBC60604EBC304A1
:103DE0000F9BCB188DED007B1C9393ED007B0F9BFD
:103DF0005B44D6E900891393DDE90003424623F0D2
:103E0000004129F000438DED3A0B8DED027BFDF76B
:103E10000BFFDDE90223002859D0DAE90001FDF7A4
:103E2000BBFADDE9002301F10041FDF797FDC4E98C
:103E300000010F9B5BF80300139B5B6803F10041DB
:103E4000D7E90023FDF78AFDC6E900016E4B002289
:103E5000C7E900230E9B023B1293129A4A9B5343DD
:103E60001D9A00200021CAE9000102EBC30A0E9A44
:103E70004A9B134403F10053013BDB0036930833A4
:103E800038934A9BDB0016935B423993531E0BEB2E
:103E9000C3031F931C9B1793169B41EC170BC3F195
:103EA000FF2303F57F03F833CDE90A018DED107B85
:103EB00037930AEBC203A3F1100B129B002B8DED7D
:103EC000087B19DA3DB0BDEC048BBDE8F08FD4E976
:103ED0000001FDF761FA41EC120B2046139C4246AB
:103EE00009F1004394ED003B9FED451B43EC102B83
:103EF000314628F06BF9A9E71C9B93ED007BDBE9C9
:103F0000000153EC172B8DED207BFDF745FA0F9B3D
:103F10000AEB030494ED007B8DED007B9FED387B75
:103F20004A9BCDE9060103FB05F88DED027B1D9B45
:103F30000AEBC50603EBC808A9460E9B994535DB7D
:103F40001F9B73E9026700221F9330460023394606
:103F5000FDF74CFE002840F0A981139B93ED007BF8
:103F60001E9B00220AEB03053046002339468DEDE7
:103F7000047BFDF731FE002848D0029B2293039B6F
:103F800003F100432393009B2493019B03F100431F
:103F900025939DED043B9DED062B9DED221B9DED94
:103FA000240B2146284628F011F972E1B6EC027B79
:103FB0001E9B434451EC170BD3E900238DED047B8A
:103FC000FDF7A2FB02460B46DDE90001FDF7E6F92D
:103FD0000F9B4344D3E90023CDE90001DDE904014F
:103FE000FDF792FB0B460246DDE90201FDF7D6F92B
:103FF000169BCDE9020109F1010998449DE700BF34
:1040000000000000000000000000F03F9BED027B7C
:10401000169B17995B448DED0C7B93ED007B51E96A
:104020000401DDE920238DED147BFDF7B5F902468F
:104030000B4680468946FDF7B1F9DDE90423FDF71B
:1040400063FB4246CDE920014B4640464946FDF719
:104050005BFB32463B468046894630463946FDF793
:1040600053FB02460B4640464946FDF797F9DDE90A
:10407000042306460F4610461946FDF745FB024647
:104080000B4630463946FDF787F902460B4643ECAE
:10409000182B0C9B1A930D9B23F000431B93089B3A
:1040A0001893099B23F00043199300220023FDF786
:1040B00093FD002831D0DDE9200100220023FDF727
:1040C0008BFD002829D0069B2693079B23F00043F5
:1040D0002793DDE92601DDE91A23FDF75FF9149B3B
:1040E0002893159B23F000432993DDE92823FDF74E
:1040F00055F9DDE91823FDF751F9049B2A93059B37
:1041000023F000432B93DDE92A23FDF747F9DDE98E
:104110003A23FDF7F9FA41EC180BDDE90A23DDE952
:104120000C01FDF7F1FADDE9022306460F46DDE951
:104130000801FDF7E9FA02460B4630463946FDF71D
:104140002BF9DDE9042306460F46DDE90001FDF702
:10415000DBFA02460B4630463946FDF71DF9DDE92C
:10416000102341EC190BDDE90C01FDF7CDFADDE977
:10417000002306460F46DDE90801FDF7C5FA0246B1
:104180000B4630463946FDF707F9DDE904230646BC
:104190000F46DDE90201FDF7B7FA02460B4630464D
:1041A0003946FDF7FBF8B0EE482AF0EE682AB0EE8B
:1041B000491AF0EE691A41EC100B9DED203B2146A7
:1041C000284628F003F8139BD3E90067369B2C960A
:1041D0000AEB0309389B0AEB030827F000432D93F1
:1041E000DDE92C01DDE91823FDF7D8F8DDE91A2314
:1041F000FDF7FCFC00286ED0009B2E93019B03F181
:1042000000432F93DDE90601D5E90023FDF77CFA91
:1042100002460B46DDE92E01FDF7BEF8D4E9002386
:10422000CDE9000130463946FDF76EFADDE90C2391
:10423000FDF794FB02460B46DDE90001FDF7AEF801
:10424000029B3093C9E90001039B03F100433193C2
:10425000DDE90601D4E90023FDF756FA02460B46D4
:10426000DDE93001FDF798F80F461399D5E90023F1
:104270000646D1E90001FDF747FADDE90C23FDF719
:104280006DFB02460B4630463946FDF785F8C8E916
:1042900000019DED0A7B8DED027B9DED107B8DED88
:1042A000007B9DED087B8DED067B129D399B9A442A
:1042B000129B9DED027B013B1293179B8DED0A7BB8
:1042C000083B9DED007B1793379B8DED107B9B4446
:1042D0009DED067BF1E50A9B32930B9B03F10043B6
:1042E0003393DDE91401D4E90023FDF70DFA02460A
:1042F0000B46DDE93201FDF74FF8109B3493119B1B
:1043000003F1004341EC180B3593DDE91401D5E9C5
:104310000023FDF7F9F902460B46DDE93401FDF70C
:104320003BF8B0EE481AF0EE681A41EC100B9DED28
:10433000082B47EC136B4146484634E6000000006A
:104340002DE9F04F8BB0CDE906014C1CDFF8F0B041
:10435000E40005464FF000084FF0000A079B98451F
:104360000FDB069BA4F1080903EB0907B8460125FA
:10437000079BAB425CDD069B0593002304970193EA
:1043800043E0D5E900670022002330463946FDF7B7
:1043900023FC002847D132463B4650465946FDF79C
:1043A000DDFA08F10108C5E900012544D6E7DBE99B
:1043B0000023F6E80201FDF7A7F902460B46DDE906
:1043C0000201FCF7EBFFCDE902010AF1010ACB443F
:1043D000AA45ECDBD8F808300893D8F80C3003F184
:1043E00000430993DDE90801DDE90223FDF78CF9BB
:1043F000049BE3E802010493019B01330193059BB5
:1044000023440593019B9D4209D0DDE9043B9FEDC8
:104410000A7BDDF804A08DED027B1E46D8E701354E
:104420004F44A044A4E74FF0FF300BB0BDE8F08F3D
:104430000020FAE7AFF30080000000000000000059
:104440000000F03F000000002DE9F04F87B00D465E
:104450000390FFF775FF00283BDB039F4FEAC50A77
:104460000024AC423ADAE3000593039B029703EB86
:10447000C409002621E0059B08EB0301049B43448B
:10448000D3E90023D1E90001FDF73EF902460B46CE
:10449000DDE90001FCF782FF0BF1010B5D45CDE981
:1044A0000001D044E7D1029BE3E802010136B442A7
:1044B000C9E900010293D14408DB9FED097BF300B9
:1044C0008DED007B0493B846A346D4E701345744EE
:1044D000C7E74FF0FF3007B0BDE8F08F0020FAE7E4
:1044E00000000000000000002DE9F04F99B0012A03
:1044F00003908B46144607DC7D4B0022C1E9002364
:10450000002019B0BDE8F08F022A0CD178490020B4
:1045100000220023CBE90001CBE90223CBE904010F
:10452000CBE90623ECE7900025F094FD05900028E8
:1045300000F0D480039B049003EBC4030B93A31EF1
:10454000E50017930B9B0E9305F1080310930BEBFB
:10455000041306930F930B9B07930026049B079F5E
:104560009FED617BB246013643F8046F4FEAC609FE
:104570008DED087B0493A9F108031493B046A04580
:1045800042DB049B1A68B2420BD0039831462346A3
:1045900027F0ADFE049A009412680398314627F084
:1045A0008DFE0E9BEB1811939846039B4B4415937D
:1045B0000F9B0AF10207A7420A933FDBDDE90F32A6
:1045C00013440F93079B13440793179B9E4218DBDA
:1045D0000B9E02272E447A1E3046069927F051FC86
:1045E000069B01372B44BC422E440693F3DC039810
:1045F000059A23465946FEF7CFFD05982AF003FD9C
:104600007EE7119B0E93A9E73B6812937B6823F02A
:1046100000431393DDE91201DDE90823FDF704FBF4
:1046200040B1049BC3F800803B6808937B6823F08B
:10463000004309932F4408F10108A0E7149B08EBFD
:104640000301079BD1E90001D3E90023FDF786F9B7
:10465000CDE9080105EB0803DDF838A01693C14643
:1046600099ED007BDDE90823FAE802018DED0C7B72
:10467000FDF74AF80B460246DDE90C01FCF78CFE1B
:10468000E9E80201169B4B45EAD19DED087B0A9BA8
:10469000DDF8549083ED007B039B03EBC7030C9381
:1046A0004FF0000A0C9BDDE90801D3E90023FDF778
:1046B0002BF80B460246D9E90001FCF76FFE0C9B74
:1046C0000AF1010A2B445445C9E900010C93A9449D
:1046D000E8D10A9BA84401372B446CE74FF0FF3028
:1046E0000FE700BFAFF300800000000000000000F3
:1046F0000000F03F000000002DE9F04F824F834D95
:104700008BB0044619B34FF6FF733B802B68B3F9A7
:104710001A30002BC0F29780062016F0C5F938B188
:104720007B4B436102230374002343748374C3747B
:10473000784900234FF4865229F094FA10F016F8C5
:104740004FF0FF300FF0F4FF10F02EF87BE0724ACC
:10475000B2F90030108083421FBF70490B7823F0FC
:1047600008030B702AF025FC6D4BC3E900012B6890
:10477000D3E90A016B4BC3E90001B7F900300133FB
:1047800005D13C802AF015FC674BC3E900012B687A
:10479000B3F91A30002B54DA002C52DD082016F041
:1047A00083F9064680B1614B43612046FCF742FF26
:1047B0005F4B0022FDF7D2F80423C6E906013374EB
:1047C00000237374B374F3743046524900234FF4DA
:1047D000035229F047FA20460FF0AAFF2B68B3F9DD
:1047E0001A60A6F16402944232DA0A2016F05CF9EB
:1047F0000546C8B14F4B43613046FCF71BFF4C4B9D
:104800000022FDF7ABF8C5E906012046FCF712FFD0
:10481000474B0022FDF7A2F80623C5E908012B74D7
:1048200000236B74AB74EB7400234FF442522846A0
:10483000384929F017FA0FF099FF20460FF078FF5A
:1048400001E0002CCADA0BB0BDE8F04F04F078B9F3
:1048500006F1640294422BDD0C2016F025F9054682
:10486000D8B1354B4361354B83613046FCF7E2FEEE
:104870002F4B0022FDF772F8C5E908012046FCF72E
:10488000D9FE2B4B0022FDF769F80823C5E90A0180
:104890002B7400236B74AB74EB7428461D49002302
:1048A00044F2400229F0DEF90FF060FF204649E7AC
:1048B000B3F9186006F164039C4243DD0C2016F046
:1048C000F3F80546D8B11E4B43611C4B836130465B
:1048D000FCF7B0FE164B0022FDF740F8C5E90801D1
:1048E0002046FCF7A7FE124B0022FDF737F80823FD
:1048F000C5E90A012B7400236B74AB74EB740023BD
:1049000044F2400293E700BFB40A002028070020C9
:10491000CD5203006CF90200B60A0020AA51002013
:10492000481D0020401D0020381D0020DB520300E0
:1049300000005940F8520300355303001955030095
:1049400073530300B7F90030581C7CD0643B9C4281
:1049500079DADFF88CA22AF02CFBDAE90023801A3E
:1049600061EB0301984B984271F100016BD22AF080
:1049700020FBDAF80030B7F900B0DAF804A00093B1
:1049800081460E20884616F08FF80546002848D04C
:10499000009B8E4AB9EB030668EB0A03A6FB02678D
:1049A00002FB03778A4B4361A4EB0B00FCF742FE4A
:1049B000884B0022FCF7D2FFF60B46EA4746FF0B76
:1049C000CDE9000130463946FCF768FE7CA3D3E907
:1049D0000023FCF7C3FF02460B46DDE90001FCF7AC
:1049E000BDFFC5E906015846FCF724FE794B0022BD
:1049F000FCF7B4FFC5E908012046FCF71BFE754B28
:104A00000022FCF7ABFFC5E90C67C5E90A014FF0CE
:104A1000000A0A232B7485F811A085F812A085F8E6
:104A200013A000236C4945F2C002284629F01AF968
:104A30000FF09CFE20460FF07BFE684B1C80684BFD
:104A4000C3E90098FFE62B68B3F91A20A242B3F934
:104A50001820C8BF5C836FF495710A4494427CDAD5
:104A6000B3F930306FF4F97213449C4275DA204682
:104A7000FCF7E0FD574B0022FCF770FF06460820CC
:104A80000F4616F011F848B1564B4361C0E906676E
:104A900004230374002343748374C37400234E49B6
:104AA0004FF4035229F0DEF82B68B3F91830A3F263
:104AB0001F339C4248DA082015F0F6FF48B14A4BF4
:104AC0004361C0E9066704230374002343748374BD
:104AD000C37400234FF403523F4929F0C3F804F292
:104AE000F3140FF00FFE4FF4FA73B4FBF3F42B68DA
:104AF000D3E90A26D3E90E73D71B66EB0306B7F595
:104B0000160F76F100032BD20A2015F0CDFFA8B1C5
:104B1000364B4361364BC0E906342C4CA7FB0423CB
:104B200004FB0633D20B42EA4342DB0B0021C0E90F
:104B300008230623037441748174C1742649002339
:104B40004FF4415229F08EF82B68D3E90A011A8EEE
:104B5000C3E90E01A2F5FA721A860FF0D3FD72E6D0
:104B60000934A4B2202202A9204611F0D7FCBDF8D6
:104B70000830059A0133ADF80830049BDB1946EB89
:104B80000202CDE90432DDE906329F4276EB0201F2
:104B900001D3134301D1CDE90676089BBB42099BA3
:104BA00002AAB3414FF000014FF02003204638BF66
:104BB000CDE9087611F076FC0E4B00221A70C3E79F
:104BC00000000000389C8C4101001E0040420F0094
:104BD000B1530300000059406CF90200B40A0020F0
:104BE000381D0020FD530300125403002A54030013
:104BF00009550300AA5100202DE9F04F054687B062
:104C0000214FBB68029304AA5B680021384698478D
:104C1000002832DBDDE9044B1C4BDFF87490A4FB69
:104C2000031203FB0B28039115A3D3E900230846C5
:104C30004146FDF7E1F8039B4FF0FF3A9A4579EBC7
:104C40000803064619D3A5FB044305FB0B3529468B
:104C50000BA3D3E900232046FDF7CEF8A24579EB5C
:104C60000505034609D3864207D300220092029A23
:104C70000021146838463246A04707B0BDE8F08FDF
:104C800000CA9A3B0000000010F4020040420F00EE
:104C9000FFC99A3B000000002DE9F04F9FB082460B
:104CA000039117461C460025387810B9284600F0B5
:104CB000A6BD252809D00399D0470028C0F29F85BA
:104CC0007B1C01350593059FEEE71822002110A8F3
:104CD0002AF0E8F97B78252B00F0BC800023791CB2
:104CE00098469E469C4618460E4611F8012B2B2AE4
:104CF00000F0E38000F2DA80202A00F0E180232A2D
:104D000000F0E1802BB19DF8483043F040038DF86E
:104D10004830B8F1000F05D09DF8483043F020032B
:104D20008DF84830BEF1000F05D09DF8483043F0B3
:104D300010038DF84830BCF1000F05D09DF84830C5
:104D400043F008038DF8483028B19DF8483043F00F
:104D500004038DF848309DF8483003F0440144299D
:104D600003D16FF386138DF848309DF848300E96C6
:104D700043F080032A2A8DF8483040F0A9809DF83E
:104D8000493043F001038DF84930731C1A782E2AFC
:104D90009DF849200CBF0121002161F341028DF8EB
:104DA00049200CD15A1C0E925A782A2A40F0A08031
:104DB0009DF8492042F004028DF8492002331A7808
:104DC0006C2A00F0C18000F2A380682A00F0A9805C
:104DD0006A2A00F0C2804C2A00F0C78013F8012B29
:104DE0000593782A8DF84B2000F209816D2A00F294
:104DF000C980692A00F20381572A00F2E280412A21
:104E000004D0A2F14503022B00F2F9809DF84A304C
:104E100002F0DF020421A2F1410961F30203D9F19A
:104E200000029DF849108DF84A3042EB090262F306
:104E3000C7110A068DF84910CBB200F11F8103F0AB
:104E40007802182A40F009816FF3C6038DF84930C3
:104E50000023F8E08DF84B30BB1C05939DF84930DA
:104E60009DF84A20DE0702F0070040F1098154F85E
:104E7000041B0491002908DA9DF8481041F0040150
:104E80008DF84810049949420491590740F1008176
:104E900054F8046B002E80F2FF809DF849306FF3C8
:104EA00041038DF849304FF0FF36F5E02D2A0DD043
:104EB000302A7FF427AF012316E74FF0010C13E7E8
:104EC0004FF0010E10E74FF001080DE701200BE74E
:104ED0000EA814F00BF90E9BB3423FF457AF9DF8A8
:104EE00048201390C00F60F341028DF848204DE731
:104EF0000EA814F0FBF89DF848301490C3F340025C
:104F000042EAD07262F341038DF848300E9B56E7B7
:104F1000742A26D07A2A7FF461AF9DF849200621B1
:104F20000CE05A78682A9DF8492006D1012161F3E6
:104F3000C6028DF84920023350E7022161F3C60210
:104F40008DF84920013349E75A786C2A9DF84920A9
:104F500001D10421EBE70321F0E79DF84920052169
:104F6000ECE79DF849200721E8E7BDF8482022F446
:104F7000F04222F0020242F4804242F00202ADF816
:104F80004820DFE76E3AD3B201229A4040F28243D2
:104F90001A429DF8493039D112F0240F61D1D1075E
:104FA0002DD59DF84A2003F07803A3F14008032192
:104FB00061F30202D8F100038DF84A2043EB0803A5
:104FC00041E0A2F15801C9B2012000FA01F111F447
:104FD000624F7FF41BAF40F6010319429DF8493040
:104FE0001AD111F4043F0AD09DF84A2060F302025E
:104FF00003F07803402B8DF84A207FF429AF9DF809
:10500000483043F001038DF8483021E79DF84A20ED
:10501000022161F30202EBE79DF84A10022003F03F
:10502000780360F30201402B8DF84A1002BF9DF80F
:10503000481041F001018DF84810632A7FF408AF51
:10504000003B18BF01239DF84820C2F340010B43E9
:1050500063F341028DF8482000E713F0380FCED1FA
:10506000F6E69DF84A20032113F0780F61F302025F
:105070008DF84A2014BF01230023E4E70123E2E76F
:105080009DF948100029B4BF13994FF0FF31FBE69A
:105090009E077FF508AF149E00230428CDE9133343
:1050A0009DF8493007D1990705D49DF94910002989
:1050B000ACBF06260D2602F00702012AC3F3C30384
:1050C00032D1DA1E042A04D8DFE802F02045452058
:1050D00020002268012B4FEAE271CDE910211BD19B
:1050E0009DF94020D117CDE9102104349DF84820C6
:1050F000069292074FD0059B03993A46504628F0F6
:10510000E3F80028C0F27B830544DCE554F8042B67
:10511000D117CDE91021E9E7022BE6D111B242F314
:10512000C032CDE91012E0E7022A24D1DA1E042AA7
:1051300004D8DFE802F0181010181800012B54F8FA
:10514000042B4FF0000114D0022BCDE91021CDD15A
:1051500092B21092CAE7073424F00704F4E802017F
:10516000CDE91001C2E754F8042B109200221192ED
:10517000BCE7D2B2CDE7042A08D1073424F00704F3
:10518000D4E900010834CDE91001AFE7032AADD11D
:1051900054F8042BDDE79DF84B80B8F1780F3FF60B
:1051A00092ADB8F1570F5CD8B8F1250F00F0A4808C
:1051B000B8F1240F7FF687ADB8F1410F04D0A8F104
:1051C0004503022B3FF67FADDDE91023002BC0F233
:1051D0004D810699080700F14C81C1F300194FEA8F
:1051E0004919C3F30A51C3F31303002940F0448162
:1051F00052EA030014BF4FF0010C4FF0000CD8022C
:1052000040EA5250D702CDE90C70B8F1460F47EA98
:10521000010740EAE17008BF4FF06608384300F02C
:10522000B881BCF1000F10D01B0343EA12531703DF
:105230003A4618464FF0000C002880F25681BCF127
:10524000000F40F05981CDE90C730D9B43F00043F2
:10525000A1F2FE3B0D930021DDE90C230F46052052
:1052600060E1A8F15802202A3FF62DAD01A151F8C6
:1052700022F000BF3F540000C74C0000C74C0000A4
:10528000C74C0000C74C0000C74C0000C74C0000D2
:10529000C74C0000C74C0000C9510000C74C0000BB
:1052A000EB530000FF530000C9510000C95100003A
:1052B000C9510000C74C0000FF530000C74C00005C
:1052C000C74C0000C74C0000C74C0000455400000C
:1052D0003F5400008F530000C74C0000C74C000033
:1052E00009530000C74C00003F540000C74C0000A9
:1052F000C74C00003F54000003994046D0470028A7
:10530000C0F27D820135DEE4002E109F3BDB31468A
:10531000384629F0EFFE002F3FF4D5AC3E18F31BC2
:105320004FF000099DF84A2012F01001069100F09C
:105330005B82023312F04002DDF84C80089218BF05
:10534000149ACDF81C80434418BF9B18049A002A75
:1053500040F36582D31A9DF8482004935007C2F3A6
:10536000800B00F15C82510640F14C82B9F1000FD4
:1053700007D003994846D0470028C0F24082013543
:10538000D94630223FE23846FCF7A9FDC6E710981F
:10539000002800F024820DF17503009312AA17ABC8
:1053A000002113F0B9FEBDF84A3003F0EF0343F4D7
:1053B000F04343F010030746ADF84A304FF00009C0
:1053C000002E0CDB9DF848200DF17503DB1B6FF3FD
:1053D00086129E428DF8482001D9F31A1393002FAC
:1053E0003FF471AC0DF175066DE0109B8DF85C30EB
:1053F0004FF000090DF15D0617AF012392E7069B00
:105400001F0758BFC3F30019DDE9102354BF4FEA4B
:1054100049194FF02B09002B06DA524263EB430384
:10542000CDE910234FF02D090DF175030093DDE94F
:10543000100117AB12AA13F06FFE0746C0E74FF03A
:105440000009F1E7109A072B3FF63DACDFE803F0C7
:105450000C04060C08080C0C157034E4158032E4BA
:10546000EB17C2E900532EE415602CE44FF02D0930
:10547000B7E64FF02B09B4E640F2FF70814231D11C
:1054800008F10108A2495FFA88F8134311F80810DF
:1054900001F003011ED101290BBF492369234E21CD
:1054A0006E210CBF462266228DF85C309DF8483094
:1054B0008DF85D106FF386138DF85E208DF84830FF
:1054C0000DF15F0617AFF31BB9F1000F3FF42AAFE0
:1054D000013327E7012915BF6E234E2361214121A6
:1054E0001A46E1E74FF0000C89E6921801F1FF310E
:1054F00040414FF0010C9FE6CDE90C20A5E6520893
:1055000042EAC3725B08B3F1333F59460BF1010B1A
:10551000F5D200FB03FCA2FB002301F1020B634464
:10552000013F01211BF1020FE9DB09B1CDE90C2399
:10553000BBF1000FDDE90C322EDCCBF10401A1F14F
:1055400020000BF11C0B02FA0BFB22FA00F0CA4000
:10555000CB40079208F0DF0243EA0B03472A43EAF5
:1055600000037DD1F91C01DBBE422BDAA8F1020851
:10557000002E5FFA88F87CDD9DF84820920606F13F
:10558000FF3676D4B6F1000B18BF4FF0010B721C3A
:1055900027E04FF0000B5EE6023342F100020CA858
:1055A000CDE90C3227F061FEDDE90C320BF1FF3B57
:1055B0000137DB185241002A0BF1FF3BF9DACDE944
:1055C0000C32B5E79DF848209006A6EB07064DD4AF
:1055D000B6F1000B18BF4FF0010BF2194FF066083F
:1055E0004AD4102AA8BF10229FED477B8DED0E7B79
:1055F00010200B90DDE90E01002A3FD1079A1B18FD
:1056000042EB0101B1F1805F47D2CDE90C31069B3D
:10561000B8F1660F03F0200240F0C180002F47DC94
:1056200030238DF85C30002A74D1002E40F3BA810B
:105630002E238DF85D3087B17B42B342A8BF33463D
:105640009DF84A201393002BA6EB0306D4BF00233A
:10565000012363F345128DF84A200DF15E0340E00B
:10566000B8F1660F4FF0000BB7D090E74FF0000B8A
:10567000B3E74FF0000B8AE70022B5E7400840EAA5
:10568000C1704908CDE90E010EA8CDE9082327F025
:10569000ECFD089A099B013AACE75B0843EAC17349
:1056A0000CA84908CDE90C31013727F0DEFDAEE743
:1056B00017AB0B9900290BDD0BA90CA8CDE906321D
:1056C00027F0EBFD069B079A03F8010B013FF0D191
:1056D0001397AAB9002E40F363812E2103F8011B12
:1056E0000027002E1FDD0B9A002A1CDD0BA90CA839
:1056F000069327F0D2FD069B013E03F8010BF0E76D
:105700002E2203F8012BEBE7000000000000000848
:10571000918003002E238DF85D30002F9DD0002E48
:105720008ADC0DF15E03BBF1000F4CD114961E46CE
:1057300008F0DF03452B21D1002FBABF7F422D2374
:105740002B23632FC8BF64227370C2BFB7FBF2F371
:1057500003F1300102FB13774FF00A0286F8008054
:10576000CABFB17002360336B7FBF2F303F1300162
:1057700002FB13733033317073700236139B002BAE
:105780002BDC149B002BD4BF002301239DF84A205F
:1057900063F3861200238DF84A20337092E60BA93A
:1057A0000CA8069227F079FD069A8DF85C00302847
:1057B00018BF07F1FF3712B9002E40F3F3802E23F4
:1057C0008DF85D3049E71E46013B16F8012C302A62
:1057D000F9D02E2A08BF1E46AAE70123D6E7734E4A
:1057E0008146771F05239DE5110748BF0133A1E5D9
:1057F000104609920399D0470028099A05DA1FB08C
:10580000BDE8F08F2022DDF810B0594600290BF1D9
:10581000FF3BEDDC049BCDF810B02B445D1AB9F1D1
:10582000000F05D003994846D0470028E7DB013533
:10583000089B002B79D09DF94930002B29DBDFF83C
:1058400070913B46187819F8002052079B4603F1E7
:1058500001033FD49DF84A30EF1B98065F4407D4FC
:105860004246002A08F1FF383BDC079B3B449F1A65
:105870009BF800002E280AD10399D0470028BEDBF0
:10588000B8F1000F07F1010731DC0BF1010B5D46A8
:1058900038E0B94699F800007028C84609F10109B6
:1058A00013D1EF1B149D47443D44EB1B002B34DC0C
:1058B000039933464246504627F006FD00289EDBFA
:1058C0003844049E0546064465E00399D047002805
:1058D000E0DA94E706930399D0470028069BB1DAF3
:1058E0008DE703993020D0470028B9DA87E703997C
:1058F0003020D04708F1FF38C0E70399D04700288F
:10590000FFF67DAF287819F800305907A84605F151
:105910000105F2D4A7EB0B07C4E703993020D04769
:105920000028FFF66CAF0137BFE79DF84A30DA0672
:1059300001D41B0706D503993020D0470028FFF675
:105940005EAF0135069B3BB103999DF84B00D047F4
:105950000028FFF654AF0135A84406E00399302033
:10596000D0470028FFF64BAF0135A8EB0503002B0D
:10597000F4DC039933463A46504627F0A5FC00284C
:10598000FFF63DAF28449CE703992020D04700282C
:10599000FFF635AF0135731B002BF5DCFFF793B92C
:1059A0001746C0E60DF15D03BDE600BF105D0300C4
:1059B00092800300000000002DE9F04F0029D0F88C
:1059C0001080446889B000F38880D8F80030D4E9AA
:1059D0000069002B4ED1A389A5680593B36806AA78
:1059E0005B68494630469847071E19DBDDE9067BB0
:1059F000A5FB072305FB0B3303920293DDE902109D
:105A000037A3D3E90023FCF7F7F9039B029A04902C
:105A10004FF0FF3A9A45344B934105D26FF085071A
:105A2000384609B0BDE8F08F6B08A3FB075703FBAE
:105A30000B7728462AA3D3E900233946FCF7DCF983
:105A4000294AAA45BA410346E8D30499B268994263
:105A500043D3059900911568049A49463046A847F2
:105A600007460028DCD1208A29F096F9012388F81E
:105A70000430D5E7B36806AA5B68494630469847C4
:105A800007460028CCD10346D8F80020DDE90601FE
:105A9000FCF7B2F91A4310D0062015F005F830B122
:105AA000124B43610223037447748774C77410490F
:105AB00000234FF4845228F0D5F8D8F80020DDE90F
:105AC00006010023FCF798F9A5890246D4E90001F4
:105AD000836800951D685308C1E76FF015079FE7BD
:105AE00000CA9A3B00000000FFC99A3B7173030093
:105AF0008CF902000000000038B52DED028B55EC4A
:105B0000104B00F04DFA224BB0EE408AF0EE608A66
:105B100093F90030013312D045EC104B29F099FA7B
:105B200068B113A3D3E9002320462946FCF77CF88B
:105B300060B128F01DFB9FED108B22230360B0EEB7
:105B4000480AF0EE680ABDEC028B38BD0CA3D3E91D
:105B5000002320462946FCF749F80028EFD028F01A
:105B600007FB22239FED088B0360E8E7AFF300807B
:105B7000EF39FAFE422E8640000000000000F07F60
:105B800051302DD5104987C00000000000000000F2
:105B9000590B0020000000002DE9F04F55EC104B90
:105BA000C74B87B025F000469E4201952DD906F1DE
:105BB000404606F58016264316D1A7A3D3E9002355
:105BC00020462946FBF7A0FDA5A3D3E900230646FE
:105BD0000F4620462946FBF797FD02460B46304606
:105BE0003946FBF7DBFB09E022462B4620462946D7
:105BF000FBF7D2FB02460B46FBF7B0FE04460D4610
:105C000045EC104B07B0BDE8F08FAE4B9E4210D86C
:105C1000B6F1795F80F0AD8093A3D3E900232046ED
:105C20002946FBF7BBFBA84B0022FBF7FDFF002832
:105C3000E6D145EC104B29F004FAA34953EC102BA4
:105C40000020FBF7A9FBA14B0022FBF75DFD88A319
:105C5000D3E9002304460D46FBF756FD86A3D3E99E
:105C60000023FBF79BFB22462B46FBF74DFD84A34D
:105C7000D3E90023FBF790FB22462B46FBF744FDBC
:105C800081A3D3E90023FBF789FB22462B46FBF7D0
:105C90003BFD7FA3D3E90023FBF77EFB22462B4687
:105CA000FBF732FD7CA3D3E90023FBF777FB224609
:105CB0002B46FBF729FD7AA3D3E90023CDE90201A6
:105CC00020462946FBF720FD77A3D3E90023FBF705
:105CD00063FB22462B46FBF717FD75A3D3E9002390
:105CE000FBF75CFB22462B46FBF70EFD72A3D3E9C4
:105CF0000023FBF751FB22462B46FBF705FD724BB9
:105D00000022FBF74BFB45EC104BCDE9040124F0DE
:105D100081FC6F4B9E425BEC10AB40F2DB80DDE917
:105D20000423DDE90201FBF719FE52465B46FBF74F
:105D3000EBFC52465B46FBF731FB02460B46FBF79A
:105D40002DFB47A3D3E90023FBF726FB02460B46B6
:105D500041A1D1E90001FBF71FFB019B002BDCBF38
:105D6000024601F1004304460D46DCBF14461D46C1
:105D700046E722462B4620462946FBF7C5FC3CA3B6
:105D8000D3E9002306460F46FBF7BEFC3AA3D3E94E
:105D90000023FBF703FB32463B46FBF7B5FC38A379
:105DA000D3E90023FBF7F8FA32463B46FBF7ACFC9D
:105DB00035A3D3E90023FBF7F1FA32463B46FBF764
:105DC000A3FC33A3D3E90023FBF7E6FA32463B46B4
:105DD000FBF79AFC30A3D3E90023FBF7DFFA324646
:105DE0003B46FBF791FC2EA3D3E90023804689466E
:105DF00030463946FBF788FC2BA3D3E90023FBF799
:105E0000CBFA32463B46FBF77FFC29A3D3E90023BC
:105E1000FBF7C4FA32463B46FBF776FC26A3D3E9F0
:105E20000023FBF7B9FA32463B46FBF76DFC264BE5
:105E30000022FBF7B3FA02460B4640464946FBF701
:105E40008DFD22462B46FBF75FFC02460B462046A3
:105E50002946C6E6AFF30080182D4454FB21F93FD4
:105E6000075C143326A6913C9C7500883CE4377E81
:105E700009F7FD0DE13D023F88B20175E0EF493FB2
:105E80003B8F68B52882A43F5544880E55C1C93F51
:105E90007D6FEB0312D6D43F555555555555C53F2B
:105EA00082922EB1C5B8B33F59018D1B6C06E63FF7
:105EB000C88A599CE52A00404B2D8A1C273A03408A
:105EC000FFFFEF3FFFFFDF3F0000F03F0000E03F3C
:105ED0003233EF3F52465B4650465946FBF75EFA77
:105EE000DDE9042306460F46DDE90201FBF736FD36
:105EF00002460B4630463946FBF706FC4FF00008D9
:105F000006460F4642465B4640465946FBF7FCFBB9
:105F100002460B4620462946FBF73EFA4246044617
:105F20000D465B4650465946FBF738FA02460B468B
:105F300020462946FBF712FD02460B46FBF72EFAD8
:105F400002460B4612A1D1E90001FBF725FA0246F1
:105F50000B4630463946FBF71FFA424604460D46CB
:105F60005B4640465946FBF719FA02460B460AA122
:105F7000D1E90001FBF710FA02460B4620462946FC
:105F8000FBF70AFA02460B4603A1D1E90001E2E65B
:105F9000075C143326A6913C182D4454FB21E93F9D
:105FA0002DE9FF4755EC104BAD4925F000428A42E0
:105FB0004FEAD57633D9AB498A4214D892A3D3E9B4
:105FC000002320462946FBF72FFE00BB90A3D3E910
:105FD000002320462946FBF709FE002800F0A08098
:105FE000002400250EE0C5F313032343224607D007
:105FF0002B4620462946FBF7D1F904460D4601E021
:10600000002EEDD145EC104B04B0BDE8F08782A323
:10601000D3E9002310461946FBF776FBEDE7924BD8
:106020009A4240F2A980914B9A4279D8904B03EB67
:10603000C603D3E9002320462946FBF7ADF98D4B73
:10604000F7003B4493ED007B8DED007BC6F1010A28
:1060500080468946AAEB060ADDE900234046494608
:10606000FBF79AF904460D4622462B462046294660
:10607000FBF74AFB6AA3D3E9002306460F46FBF76A
:1060800043FB69A3D3E90023FBF786F932463B467D
:10609000FBF73AFB66A3D3E90023FBF77FF932460F
:1060A0003B46FBF731FB64A3D3E90023FBF774F90C
:1060B00032463B46FBF728FB61A3D3E90023FBF7FD
:1060C0006DF932463B46FBF71FFB02460B46204666
:1060D0002946FBF761F902460B4606460F46204665
:1060E0002946FBF711FBCDE90201BAF1000F5CD1A3
:1060F00000224FF0804330463946FBF74DF9024607
:106100000B46DDE90201FBF729FC22462B46FBF793
:1061100043F902460B4600205749FBF73DF96CE76F
:10612000564B204603EBC606294647A3D3E9002376
:10613000FBF7EAFAD6E90023FBF730F9FBF794FD09
:106140008246FBF777FA42A3D3E9002306460F46BF
:10615000FBF7DAFA02460B4620462946FBF71CF904
:106160003DA3D3E900238046894630463946FBF7F4
:10617000CBFACDE900016FE7414B9A4210D826A334
:10618000D3E9002320462946FBF708F93A4B0022C1
:10619000FBF74AFD38B1384B0022204629462AE752
:1061A0004FF0000A60E782465EE732463B46002039
:1061B0004FF08041FBF7F0F802460B46DDE90201A3
:1061C000FBF7CCFB02460B46DDE90001FBF7E4F8E8
:1061D00042464B46FBF7E0F802460B4600202649B4
:1061E000FBF7DAF86FF47F72924502DB01EB0A519C
:1061F00003E70AF57A7A01EB0A5100224FF0B873EF
:106200000AE700BFAFF30080EF39FAFE422E864066
:1062100051302DD5104987C09C7500883CE4377EED
:10622000D0A4BE726937663EF16BD2C541BDBB3E9C
:106230002CDE25AF6A56113F93BDBE166CC1663F7A
:106240003E5555555555C53FFE822B654715F73FC1
:106250000000E0FE422EE63F763C7935EF39EA3D1C
:10626000412E8640FFFFEF7F422ED63FB1A2F03F86
:1062700018FC020008FC02000000F03F28FC0200AD
:10628000FFFF2F3E000000009FED010B704700BF95
:10629000000000000000F87F2DE9F043DFF88CC01B
:1062A0001F4C204E204FDFF888E000230125206896
:1062B00005FA03F802881FFA88F1114207D116F88F
:1062C00003904288B9F1000F23D00A43428022682C
:1062D0009088014207D117F80390D088B9F1000FD8
:1062E0001AD00843D0801089014202BF02EB43005C
:1062F0003CF81380A0F80A80508D014202BF02EBE7
:1063000083025EF82310D1620133102BCFD1BDE898
:10631000F08322EA0802D9E720EA0800E2E700BF9A
:1063200024070020530C0300430C0300280903003A
:1063300038FC020030B40E4A156801232C8803FA99
:1063400000F083B21C432C80126861B151880B436A
:106350005380084B1A6830BC802302F55F7200211D
:106360001E2010F09FB8538823EA0003F0E700BF17
:10637000240700202807002010B4012303FA00F0AE
:106380000B4B1A68938884B223439380D38861B1FE
:106390002343D380074B5DF8044B1A680021802308
:1063A00002F55F721E2010F07DB823EA0003F0E7CB
:1063B000240700202807002010B40A4B1B68012284
:1063C0001C89824022431A8103EB40031E2059811D
:1063D000054B5DF8044B1A680021802302F55F72BB
:1063E00010F060B8240700202807002010B40A4BE2
:1063F0001B6801225C8D824022435A8503EB800397
:106400001E20D962054B5DF8044B1A6800218023D9
:1064100002F55F7210F046B824070020280700201C
:10642000012310B503FA01F1032809D8DFE800F0D1
:1064300002151C23134B1A68138823EA01031380E7
:10644000FFF72AFF104B1A68BDE81040802302F5C1
:106450005F7200211E2010F025B80A4B1A6893883D
:1064600023EA01039380EBE7064B1A68138923EABA
:1064700001031381E4E7034B1A68538D23EA0103F8
:106480005385DDE7240700202807002070B5194D4B
:106490002B782BB9184826F0C4FE01232B7070BD51
:1064A000164826F0BEFE164B1A68002414801B689E
:1064B0009C801C815C85FFF7EFFE124B1A681E2042
:1064C000802302F55F7221460FF0ECFF06202C704E
:1064D00014F0EAFA30B10C4B4361022303744474A4
:1064E0008474C474BDE87040084900234FF4865298
:1064F00027F0B8BBCA4F002064090300E409030079
:106500002407002028070020FF09030094F9020057
:10651000014821F0ABB900BFF40B0020014B18700B
:10652000704700BFEA4F0020102898BF0A4B0B4A63
:1065300094BF1B5C0023002913700ADB084B1B6807
:10654000DB8813F0080F14BF02230123054A1370E0
:1065500070470023FAE700BF790C0300E64F0020E4
:1065600024070020E54F002070B59FED100A0D466E
:106570000F49044626F0DCF80E4B187023460C4CED
:1065800003F1100618685968224603C20833B34263
:106590001446F7D128686968074B03C3A8681860D8
:1065A00025F0A5F9054BC3E9000170BD0AD7A33B4F
:1065B000A0300020CC4F0020943000200013002099
:1065C00008B50246054B0068516803C3906818601F
:1065D00025F08DF9024BC3E9000108BD8830002089
:1065E000F8120020DFED137AB4EEE70AF1EE10FAAC
:1065F00082B01AD4DFED107AB4EEE70AF1EE10FAA9
:1066000015DCF3EE097A30EE670ADFED0C7A30EE36
:10661000000A30EE270AFCEEC07ACDED017A9DF833
:106620000430074A137002B070470123F9E7FF23D3
:10663000F7E700BF00001AC20000B142008000432B
:10664000E74F0020014BC3E90001704748050020D7
:1066500030B5039C124D20B928700023114A1370E5
:1066600030BDAAB96422B3FBF2F363F07F03DBB25F
:106670002B700A2271B141F2D603A342B8BF234660
:10668000B3FBF2F3F53BFF2BD4BFDBB2FF23E5E70F
:10669000FF23EDE794FBF2F3F53BDED4F3E700BF15
:1066A000E94F0020E84F0020044B10F0050F187050
:1066B000034B0CBF012203221A707047E44F0020E5
:1066C000E80A002008B5044B187025F010F9034BB8
:1066D000C3E9000108BD00BFE34F0020E81200201D
:1066E000014B01221A707047CB4F00207FB52D4B14
:1066F00000241B780394CDE900448DF801302A4B27
:106700001B788DF80230294B1B788DF80330284B0D
:106710001B788DF8043018238DF8053009238DF887
:106720000630244B1B788DF80830234B1B788DF8EE
:10673000093040F6A343ADF80A30204840F6CD4278
:10674000002320F0DDFFA0B1082014F0ADF940B126
:106750001B4B43611B4B8361032303744474847498
:10676000C474194900234FF4C25227F07BFA04B0D5
:1067700070BD6C46154A04AE2546234603CBB34292
:10678000106051601C4602F10802F6D125F0AFF806
:106790000F4BC3E90001FFF7BBFE284601F086FF5F
:1067A000E5E700BFEA4F0020E94F0020E84F002056
:1067B000E74F0020E64F0020E54F0020F40B0020BB
:1067C000630C0300400D03009CF90200CE4F002033
:1067D000E81300207FB58C4ADFED8C6AD2ED017A98
:1067E0009FED8B7A012367EEA67A8DF80030894BF6
:1067F000F4EEC77A1B788DF80130F1EE10FA00F351
:10680000C0809FED856AF4EEC67AF1EE10FA00F1D1
:10681000BB80FDEEE77A17EE903A9BB2D2ED027A9A
:10682000ADF8023067EEA67AF4EEC77AF1EE10FA10
:1068300000F3AD809FED786AF4EEC67AF1EE10FABF
:1068400000F1A880FDEEE77A17EE903A9BB2D2ED08
:10685000037AADF8043067EEA67AF4EEC77AF1EE6B
:1068600010FA00F39A809FED6C6AF4EEC67AF1EEAE
:1068700010FA00F19580FDEEE77A17EE903A9BB2A0
:10688000D2ED007AADF8063067EEA67AF4EEC77A5C
:10689000F1EE10FA00F38780DFED5F6AF4EEE67A3E
:1068A000F1EE10FA00F18280FDEEE77A17EE903AF1
:1068B0009BB25A4ADFED5A6AD2ED007AADF8083041
:1068C00067EEA67AF4EEC77AF1EE10FA71DC9FED6E
:1068D000526AF4EEC67AF1EE10FA6DD4FDEEE77A64
:1068E00017EE903A9BB2D2ED017AADF80A3067EE1E
:1068F000A67AF4EEC77AF1EE10FA60DC9FED466AF4
:10690000F4EEC67AF1EE10FA5CD4FDEEE77A17EEFB
:10691000903A9BB2D2ED027AADF80C3067EEA67ACF
:10692000F4EEC77AF1EE10FA4FDC9FED3B7AF4EE0D
:10693000C77AF1EE10FA4BD4FDEEE77A17EE903AF3
:106940009BB2ADF80E30374840F6CD42002320F020
:10695000D7FE00283FD0082014F0A6F848B1324BEB
:106960004361324B836103230374002343748374B4
:10697000C3742F4900234FF4C25227F073F904B0B7
:1069800070BD47F6FF7349E74FF4004346E747F60B
:10699000FF735CE74FF4004359E747F6FF736FE777
:1069A0004FF400436CE747F6FF7382E74FF4004370
:1069B0007FE747F6FF7396E74FF4004393E747F608
:1069C000FF73A7E74FF40043A4E747F6FF73B8E768
:1069D0004FF40043B5E76C46164A04AE25462346FD
:1069E00003CBB342106051601C4602F10802F6D19D
:1069F00024F07DFF104BC3E90001FFF789FD284615
:106A000001F054FEBBE700BFA030002000000047AB
:106A100000FEFF46EA4F0020000000C7943000202F
:106A200000000043F40B0020630C0300260D03005C
:106A30009CF90200CE4F0020E813002070B588B00A
:106A400002238DF810308E4B8E481B788DF8113054
:106A50008D4B1B788DF812308C4B1B788DF81330D2
:106A60008B4B00241B78079401A9CDE90544CDE99F
:106A700001448DF81430039410F0F8F8DDED016A4C
:106A80009DED027ADDED037AF7EE005A76EEA56A07
:106A900037EE257A77EEA57AB6EE006A66EE866A5C
:106AA00027EE067A67EE867A9FED7A6ACDED016A67
:106AB00066EE866A9FED786A8DED027AF4EEC66A1C
:106AC000F1EE10FACDED037A00F3A280F5EEC06A84
:106AD000F1EE10FA04D4FCEEE66A16EE903A9CB29F
